:020000040800F2
:100000000000032065020008B1020008B1020008E8
:10001000B1020008B1020008B102000800000000AF
:10002000000000000000000000000000B102000815
:10003000B102000800000000B1020008B10200088F
:10004000B1020008B1020008B1020008B1020008C4
:10005000B1020008B1020008B1020008B1020008B4
:10006000B1020008B1020008B1020008B1020008A4
:10007000B1020008B1020008B1020008B102000894
:10008000B1020008B1020008B1020008B102000884
:10009000B1020008B1020008B1020008B102000874
:1000A000B1020008B1020008B1020008B102000864
:1000B000B1020008B1020008B1020008B102000854
:1000C000B1020008B1020008B1020008B102000844
:1000D000B1020008B1020008B1020008B102000834
:1000E000B1020008B1020008B1020008B102000824
:1000F000B1020008B1020008B1020008B102000814
:10010000B1020008B1020008B1020008B102000803
:10011000B1020008B1020008B1020008B1020008F3
:10012000B1020008B1020008B1020008B1020008E3
:10013000B1020008B1020008B1020008B1020008D3
:10014000B1020008B1020008B1020008B1020008C3
:10015000B1020008B1020008B1020008B1020008B3
:10016000B1020008B1020008B1020008B1020008A3
:10017000B1020008B1020008B1020008000000004E
:10018000B1020008B1020008B1020008B102000883
:10019000B1020008B1020008B1020008B102000873
:0C01A000B1020008B1020008B102000822
:1001AC0010B5054C237833B9044B13B10448AFF3A5
:1001BC0000800123237010BD00000020000000000F
:1001CC00FC02000808B5034B1BB103490348AFF30D
:1001DC00008008BD0000000004000020FC020008A4
:1001EC001B4AD2F8303843F00203C2F83038194BAE
:1001FC00D3F8002442F48042C3F80024D3F8082436
:10020C0042F48042C3F80824D3F8182442F40002C4
:10021C00C3F818240DE00F4AD2F8183443F08003C9
:10022C00C2F818340B4AD2F8183443F08003C2F8E1
:10023C001834084BD3F8103813F0010FEBD1054AE2
:10024C00D2F8183443F40003C2F81834EAE700BFBC
:10025C000030024000000240DFF830D00C480D495D
:10026C000D4A002302E0D458C4500433C4188C4205
:10027C00F9D30A4A0A4C002301E013600432A2426B
:10028C00FBD300F011F8FFF7ABFF70470000032021
:10029C0000000020000000201C03000800000020CB
:1002AC001C000020FEE7000070B50D4D0D4C641BCA
:1002BC00A4100026A64209D10B4D0C4C00F018F8E6
:1002CC00641BA4100026A64205D170BD55F8043B52
:1002DC0098470136EEE755F8043B98470136F2E7AC
:1002EC001403000814030008140300081803000882
:1002FC00F8B500BFF8BC08BC9E467047F8B500BF07
:08030C00F8BC08BC9E467047D6
:04031400D10100080B
:04031800AD0100082B
:040000050800026588
:00000001FF
